{
  "_format": "hh-sol-artifact-1",
  "contractName": "CallRevertWithTryCatch",
  "sourceName": "contracts/try.sol",
  "abi": [
    {
      "inputs": [
        {
          "internalType": "contract Revert",
          "name": "a",
          "type": "address"
        }
      ],
      "name": "test",
      "outputs": [
        {
          "internalType": "uint256",
          "name": "",
          "type": "uint256"
        }
      ],
      "stateMutability": "nonpayable",
      "type": "function"
    },
    {
      "inputs": [],
      "name": "x",
      "outputs": [
        {
          "internalType": "uint256",
          "name": "",
          "type": "uint256"
        }
      ],
      "stateMutability": "view",
      "type": "function"
    }
  ],
  "bytecode": "0x6080604052600160005534801561001557600080fd5b50610225806100256000396000f3fe608060405234801561001057600080fd5b50600436106100365760003560e01c80630c55699c1461003b578063bb29998e14610059575b600080fd5b610043610089565b604051610050919061016a565b60405180910390f35b610073600480360381019061006e919061012e565b61008f565b604051610080919061016a565b60405180910390f35b60005481565b600060036000819055508173ffffffffffffffffffffffffffffffffffffffff1663f8a8fd6d6040518163ffffffff1660e01b8152600401600060405180830381600087803b1580156100e157600080fd5b505af19250505080156100f2575060015b61010757600260008190555060099050610114565b6004600081905550600890505b919050565b600081359050610128816101d8565b92915050565b600060208284031215610144576101436101d3565b5b600061015284828501610119565b91505092915050565b610164816101c9565b82525050565b600060208201905061017f600083018461015b565b92915050565b6000610190826101a9565b9050919050565b60006101a282610185565b9050919050565b600073ffffffffffffffffffffffffffffffffffffffff82169050919050565b6000819050919050565b600080fd5b6101e181610197565b81146101ec57600080fd5b5056fea2646970667358221220506dbf7607ada20e8d557f3db634bf28cc9fe28ca1dc78db7fdfc7200697876064736f6c63430008060033",
  "linkReferences": {},
  "deployedLinkReferences": {}
}