{
  "_format": "hh-sol-artifact-1",
  "contractName": "CallRevertWithoutTryCatch",
  "sourceName": "contracts/tryCatchRevert.sol",
  "abi": [
    {
      "inputs": [],
      "name": "state",
      "outputs": [
        {
          "internalType": "uint256",
          "name": "",
          "type": "uint256"
        }
      ],
      "stateMutability": "view",
      "type": "function"
    },
    {
      "inputs": [
        {
          "internalType": "contract Revert",
          "name": "a",
          "type": "address"
        }
      ],
      "name": "test",
      "outputs": [
        {
          "internalType": "uint256",
          "name": "",
          "type": "uint256"
        }
      ],
      "stateMutability": "nonpayable",
      "type": "function"
    }
  ],
  "bytecode": "0x6080604052600160005534801561001557600080fd5b5061020e806100256000396000f3fe608060405234801561001057600080fd5b50600436106100365760003560e01c8063bb29998e1461003b578063c19d93fb1461006b575b600080fd5b61005560048036038101906100509190610117565b610089565b6040516100629190610153565b60405180910390f35b6100736100fc565b6040516100809190610153565b60405180910390f35b600060026000819055508173ffffffffffffffffffffffffffffffffffffffff1663f8a8fd6d6040518163ffffffff1660e01b8152600401600060405180830381600087803b1580156100db57600080fd5b505af11580156100ef573d6000803e3d6000fd5b5050505060039050919050565b60005481565b600081359050610111816101c1565b92915050565b60006020828403121561012d5761012c6101bc565b5b600061013b84828501610102565b91505092915050565b61014d816101b2565b82525050565b60006020820190506101686000830184610144565b92915050565b600061017982610192565b9050919050565b600061018b8261016e565b9050919050565b600073ffffffffffffffffffffffffffffffffffffffff82169050919050565b6000819050919050565b600080fd5b6101ca81610180565b81146101d557600080fd5b5056fea26469706673582212201b4fa5f998962d4975412c1e1ef8d9db114c106286755e3c4251e5f1c18e408164736f6c63430008060033",
  "linkReferences": {},
  "deployedLinkReferences": {}
}