{
  "_format": "hh-sol-artifact-1",
  "contractName": "CallRevertWithTryCatchInConstructor",
  "sourceName": "contracts/tryCatchRevert.sol",
  "abi": [
    {
      "inputs": [
        {
          "internalType": "contract Revert",
          "name": "c",
          "type": "address"
        }
      ],
      "stateMutability": "nonpayable",
      "type": "constructor"
    },
    {
      "inputs": [],
      "name": "state",
      "outputs": [
        {
          "internalType": "uint256",
          "name": "",
          "type": "uint256"
        }
      ],
      "stateMutability": "view",
      "type": "function"
    }
  ],
  "bytecode": "0x6080604052600160005534801561001557600080fd5b5060405161021b38038061021b833981810160405281019061003791906100cd565b60026000819055508073ffffffffffffffffffffffffffffffffffffffff1663f8a8fd6d6040518163ffffffff1660e01b8152600401600060405180830381600087803b15801561008757600080fd5b505af1925050508015610098575060015b6100a95760046000819055506100b2565b60036000819055505b5061015a565b6000815190506100c781610143565b92915050565b6000602082840312156100e3576100e261013e565b5b60006100f1848285016100b8565b91505092915050565b60006101058261011e565b9050919050565b6000610117826100fa565b9050919050565b600073ffffffffffffffffffffffffffffffffffffffff82169050919050565b600080fd5b61014c8161010c565b811461015757600080fd5b50565b60b3806101686000396000f3fe6080604052348015600f57600080fd5b506004361060285760003560e01c8063c19d93fb14602d575b600080fd5b60336047565b604051603e9190605a565b60405180910390f35b60005481565b6054816073565b82525050565b6000602082019050606d6000830184604d565b92915050565b600081905091905056fea2646970667358221220e34e756c10dac1c5f33813ddf9a5825475796c0d32d61dfe5986b6911aa5df4164736f6c63430008060033",
  "linkReferences": {},
  "deployedLinkReferences": {}
}