{
  "_format": "hh-sol-artifact-1",
  "contractName": "CallRevertWithTryCatchInDepth",
  "sourceName": "contracts/try.sol",
  "abi": [
    {
      "inputs": [
        {
          "internalType": "contract CallRevertWithTryCatch",
          "name": "b",
          "type": "address"
        },
        {
          "internalType": "contract Revert",
          "name": "a",
          "type": "address"
        }
      ],
      "name": "test",
      "outputs": [
        {
          "internalType": "uint256",
          "name": "",
          "type": "uint256"
        }
      ],
      "stateMutability": "nonpayable",
      "type": "function"
    },
    {
      "inputs": [],
      "name": "y",
      "outputs": [
        {
          "internalType": "uint256",
          "name": "",
          "type": "uint256"
        }
      ],
      "stateMutability": "view",
      "type": "function"
    }
  ],
  "bytecode": "0x6080604052600160005534801561001557600080fd5b5061034a806100256000396000f3fe608060405234801561001057600080fd5b50600436106100365760003560e01c80632b6d0ceb1461003b578063a56dfe4a1461006b575b600080fd5b61005560048036038101906100509190610185565b610089565b604051610062919061022b565b60405180910390f35b610073610140565b604051610080919061022b565b60405180910390f35b600060036000819055508273ffffffffffffffffffffffffffffffffffffffff1663bb29998e836040518263ffffffff1660e01b81526004016100cc9190610210565b602060405180830381600087803b1580156100e657600080fd5b505af192505050801561011757506040513d601f19601f8201168201806040525081019061011491906101c5565b60015b61012c5760026000819055506009905061013a565b506004600081905550600890505b92915050565b60005481565b600081359050610155816102cf565b92915050565b60008135905061016a816102e6565b92915050565b60008151905061017f816102fd565b92915050565b6000806040838503121561019c5761019b6102ca565b5b60006101aa8582860161015b565b92505060206101bb85828601610146565b9150509250929050565b6000602082840312156101db576101da6102ca565b5b60006101e984828501610170565b91505092915050565b6101fb816102a6565b82525050565b61020a8161029c565b82525050565b600060208201905061022560008301846101f2565b92915050565b60006020820190506102406000830184610201565b92915050565b60006102518261027c565b9050919050565b600061026382610246565b9050919050565b600061027582610246565b9050919050565b600073ffffffffffffffffffffffffffffffffffffffff82169050919050565b6000819050919050565b60006102b1826102b8565b9050919050565b60006102c38261027c565b9050919050565b600080fd5b6102d881610258565b81146102e357600080fd5b50565b6102ef8161026a565b81146102fa57600080fd5b50565b6103068161029c565b811461031157600080fd5b5056fea2646970667358221220726e359d1b6a32ae1926ffe27d6c5f541e2a2f7c67e4be0985b3897255c1f66964736f6c63430008060033",
  "linkReferences": {},
  "deployedLinkReferences": {}
}