{
  "_format": "hh-sol-artifact-1",
  "contractName": "Revert",
  "sourceName": "contracts/tryCatchRevert.sol",
  "abi": [
    {
      "inputs": [],
      "name": "state",
      "outputs": [
        {
          "internalType": "uint256",
          "name": "",
          "type": "uint256"
        }
      ],
      "stateMutability": "view",
      "type": "function"
    },
    {
      "inputs": [],
      "name": "test",
      "outputs": [],
      "stateMutability": "nonpayable",
      "type": "function"
    }
  ],
  "bytecode": "0x6080604052600160005534801561001557600080fd5b5060d2806100246000396000f3fe6080604052348015600f57600080fd5b506004361060325760003560e01c8063c19d93fb146037578063f8a8fd6d146051575b600080fd5b603d6059565b604051604891906079565b60405180910390f35b6057605f565b005b60005481565b6002600081905550600080fd5b6073816092565b82525050565b6000602082019050608c6000830184606c565b92915050565b600081905091905056fea2646970667358221220c3a37d667b52d5b8664dd1f4144a7219ac5786775d6e8281bfd0b2c6bc13c94864736f6c63430008060033",
  "linkReferences": {},
  "deployedLinkReferences": {}
}